{
  "contractName": "DAO",
  "abi": [
    {
      "inputs": [
        {
          "internalType": "address",
          "name": "_token",
          "type": "address"
        }
      ],
      "stateMutability": "nonpayable",
      "type": "constructor"
    },
    {
      "inputs": [
        {
          "internalType": "address",
          "name": "",
          "type": "address"
        },
        {
          "internalType": "bytes32",
          "name": "",
          "type": "bytes32"
        }
      ],
      "name": "hasVoted",
      "outputs": [
        {
          "internalType": "bool",
          "name": "",
          "type": "bool"
        }
      ],
      "stateMutability": "view",
      "type": "function"
    },
    {
      "inputs": [
        {
          "internalType": "bytes32",
          "name": "",
          "type": "bytes32"
        }
      ],
      "name": "proposals",
      "outputs": [
        {
          "internalType": "address",
          "name": "author",
          "type": "address"
        },
        {
          "internalType": "bytes32",
          "name": "hash",
          "type": "bytes32"
        },
        {
          "internalType": "uint256",
          "name": "createdAt",
          "type": "uint256"
        },
        {
          "internalType": "uint256",
          "name": "votesYes",
          "type": "uint256"
        },
        {
          "internalType": "uint256",
          "name": "votesNo",
          "type": "uint256"
        },
        {
          "internalType": "enum DAO.Status",
          "name": "status",
          "type": "uint8"
        }
      ],
      "stateMutability": "view",
      "type": "function"
    },
    {
      "inputs": [
        {
          "internalType": "address",
          "name": "",
          "type": "address"
        }
      ],
      "name": "shares",
      "outputs": [
        {
          "internalType": "uint256",
          "name": "",
          "type": "uint256"
        }
      ],
      "stateMutability": "view",
      "type": "function"
    },
    {
      "inputs": [],
      "name": "token",
      "outputs": [
        {
          "internalType": "contract IERC20",
          "name": "",
          "type": "address"
        }
      ],
      "stateMutability": "view",
      "type": "function"
    },
    {
      "inputs": [],
      "name": "totalShares",
      "outputs": [
        {
          "internalType": "uint256",
          "name": "",
          "type": "uint256"
        }
      ],
      "stateMutability": "view",
      "type": "function"
    },
    {
      "inputs": [
        {
          "internalType": "uint256",
          "name": "amount",
          "type": "uint256"
        }
      ],
      "name": "deposit",
      "outputs": [],
      "stateMutability": "nonpayable",
      "type": "function"
    },
    {
      "inputs": [
        {
          "internalType": "uint256",
          "name": "amount",
          "type": "uint256"
        }
      ],
      "name": "withdraw",
      "outputs": [],
      "stateMutability": "nonpayable",
      "type": "function"
    },
    {
      "inputs": [
        {
          "internalType": "bytes32",
          "name": "propHash",
          "type": "bytes32"
        }
      ],
      "name": "createProposal",
      "outputs": [],
      "stateMutability": "nonpayable",
      "type": "function"
    },
    {
      "inputs": [
        {
          "internalType": "bytes32",
          "name": "propHash",
          "type": "bytes32"
        },
        {
          "internalType": "enum DAO.Side",
          "name": "side",
          "type": "uint8"
        }
      ],
      "name": "vote",
      "outputs": [],
      "stateMutability": "nonpayable",
      "type": "function"
    }
  ],
  "bytecode": "0x608060405234801561001057600080fd5b50604051610e5a380380610e5a8339818101604052602081101561003357600080fd5b810190808051906020019092919050505080600460006101000a81548173ffffffffffffffffffffffffffffffffffffffff021916908373ffffffffffffffffffffffffffffffffffffffff16021790555050610dc5806100956000396000f3fe608060405234801561001057600080fd5b50600436106100935760003560e01c80634a1dc5cc116100665780634a1dc5cc14610198578063b6b55f25146101fc578063c9a28cb91461022a578063ce7c2ac214610265578063fc0c546a146102bd57610093565b80632542bf06146100985780632e1a7d4d146100c657806332ed5b12146100f45780633a98ef391461017a575b600080fd5b6100c4600480360360208110156100ae57600080fd5b81019080803590602001909291905050506102f1565b005b6100f2600480360360208110156100dc57600080fd5b81019080803590602001909291905050506104b7565b005b6101206004803603602081101561010a57600080fd5b810190808035906020019092919050505061067e565b604051808773ffffffffffffffffffffffffffffffffffffffff16815260200186815260200185815260200184815260200183815260200182600281111561016457fe5b8152602001965050505050505060405180910390f35b6101826106e7565b6040518082815260200191505060405180910390f35b6101e4600480360360408110156101ae57600080fd5b81019080803573ffffffffffffffffffffffffffffffffffffffff169060200190929190803590602001909291905050506106ed565b60405180821515815260200191505060405180910390f35b6102286004803603602081101561021257600080fd5b810190808035906020019092919050505061071c565b005b6102636004803603604081101561024057600080fd5b8101908080359060200190929190803560ff169060200190929190505050610869565b005b6102a76004803603602081101561027b57600080fd5b81019080803573ffffffffffffffffffffffffffffffffffffffff169060200190929190505050610c70565b6040518082815260200191505060405180910390f35b6102c5610c88565b604051808273ffffffffffffffffffffffffffffffffffffffff16815260200191505060405180910390f35b683635c9adc5dea00000600260003373ffffffffffffffffffffffffffffffffffffffff1673ffffffffffffffffffffffffffffffffffffffff168152602001908152602001600020541015610392576040517f08c379a0000000000000000000000000000000000000000000000000000000008152600401808060200182810382526031815260200180610d5f6031913960400191505060405180910390fd5b6000801b60008083815260200190815260200160002060010154146103b657600080fd5b6040518060c001604052803373ffffffffffffffffffffffffffffffffffffffff16815260200182815260200142815260200160008152602001600081526020016000600281111561040457fe5b81525060008083815260200190815260200160002060008201518160000160006101000a81548173ffffffffffffffffffffffffffffffffffffffff021916908373ffffffffffffffffffffffffffffffffffffffff1602179055506020820151816001015560408201518160020155606082015181600301556080820151816004015560a08201518160050160006101000a81548160ff021916908360028111156104ac57fe5b021790555090505050565b80600260003373ffffffffffffffffffffffffffffffffffffffff1673ffffffffffffffffffffffffffffffffffffffff16815260200190815260200160002054101561054f576040517f08c379a000000000000000000000000000000000000000000000000000000000815260040180806020018281038252602f815260200180610caf602f913960400191505060405180910390fd5b80600260003373ffffffffffffffffffffffffffffffffffffffff1673ffffffffffffffffffffffffffffffffffffffff1681526020019081526020016000206000828254039250508190555080600360008282540392505081905550600460009054906101000a900473ffffffffffffffffffffffffffffffffffffffff1673ffffffffffffffffffffffffffffffffffffffff1663a9059cbb33836040518363ffffffff1660e01b8152600401808373ffffffffffffffffffffffffffffffffffffffff16815260200182815260200192505050602060405180830381600087803b15801561063f57600080fd5b505af1158015610653573d6000803e3d6000fd5b505050506040513d602081101561066957600080fd5b81019080805190602001909291905050505050565b60006020528060005260406000206000915090508060000160009054906101000a900473ffffffffffffffffffffffffffffffffffffffff16908060010154908060020154908060030154908060040154908060050160009054906101000a900460ff16905086565b60035481565b60016020528160005260406000206020528060005260406000206000915091509054906101000a900460ff1681565b80600260003373ffffffffffffffffffffffffffffffffffffffff1673ffffffffffffffffffffffffffffffffffffffff1681526020019081526020016000206000828254019250508190555080600360008282540192505081905550600460009054906101000a900473ffffffffffffffffffffffffffffffffffffffff1673ffffffffffffffffffffffffffffffffffffffff166323b872dd3330846040518463ffffffff1660e01b8152600401808473ffffffffffffffffffffffffffffffffffffffff1681526020018373ffffffffffffffffffffffffffffffffffffffff1681526020018281526020019350505050602060405180830381600087803b15801561082a57600080fd5b505af115801561083e573d6000803e3d6000fd5b505050506040513d602081101561085457600080fd5b81019080805190602001909291905050505050565b6000806000848152602001908152602001600020905060001515600160003373ffffffffffffffffffffffffffffffffffffffff1673ffffffffffffffffffffffffffffffffffffffff168152602001908152602001600020600085815260200190815260200160002060009054906101000a900460ff16151514610939576040517f08c379a0000000000000000000000000000000000000000000000000000000008152600401808060200182810382526027815260200180610d386027913960400191505060405180910390fd5b6000801b6000808581526020019081526020016000206001015414156109c7576040517f08c379a00000000000000000000000000000000000000000000000000000000081526004018080602001828103825260178152602001807f50726f706f73616c20416c72656164792045786973747300000000000000000081525060200191505060405180910390fd5b62093a80816002015401421115610a29576040517f08c379a0000000000000000000000000000000000000000000000000000000008152600401808060200182810382526035815260200180610cde6035913960400191505060405180910390fd5b60006001811115610a3657fe5b826001811115610a4257fe5b1480610a635750600180811115610a5557fe5b826001811115610a6157fe5b145b610ab8576040517f08c379a0000000000000000000000000000000000000000000000000000000008152600401808060200182810382526025815260200180610d136025913960400191505060405180910390fd5b60018060003373ffffffffffffffffffffffffffffffffffffffff1673ffffffffffffffffffffffffffffffffffffffff168152602001908152602001600020600085815260200190815260200160002060006101000a81548160ff02191690831515021790555060006001811115610b2d57fe5b826001811115610b3957fe5b1415610bd757600260003373ffffffffffffffffffffffffffffffffffffffff1673ffffffffffffffffffffffffffffffffffffffff1681526020019081526020016000205481600301600082825401925050819055506032600354606483600301540281610ba457fe5b041115610bd25760018160050160006101000a81548160ff02191690836002811115610bcc57fe5b02179055505b610c6b565b600260003373ffffffffffffffffffffffffffffffffffffffff1673ffffffffffffffffffffffffffffffffffffffff1681526020019081526020016000205481600401600082825401925050819055506032600354606483600401540281610c3c57fe5b041115610c6a5760028160050160006101000a81548160ff02191690836002811115610c6457fe5b02179055505b5b505050565b60026020528060005260406000206000915090505481565b600460009054906101000a900473ffffffffffffffffffffffffffffffffffffffff168156fe5769746864726177616c20616d6f756e74206c6172676572207468616e206465706f73697465642062616c616e636554686520766f74696e6720706572696f6420666f7220746869732070726f706f73616c2068617320616c726561647920656e646564596f7520646964206e6f7420696e70757420536964652e596573206f7220536964652e4e6f596f75206861766520616c726561647920766f746564206f6e20746869732070726f706f73616c596f7520646f206e6f74206861766520656e6f7567682073686172657320746f20637261746520612070726f706f73616ca2646970667358221220feaea2f8a75b14926128634eca39e1b1c841b43f82e2b32dd7eae5ee08961d1164736f6c63430007030033",
  "immutableReferences": {},
  "source": "pragma solidity ^0.7.3;\r\n\r\nimport '@openzeppelin/contracts/token/ERC20/ERC20.sol';\r\n\r\ncontract DAO {\r\n  enum Side { Yes, No }\r\n  enum Status {Undecided, Approved, Rejected }\r\n\r\n  struct Proposal {\r\n    address author;\r\n    bytes32 hash;\r\n    uint    createdAt;\r\n    uint    votesYes;\r\n    uint    votesNo;\r\n    Status  status;\r\n  }\r\n\r\n  mapping(bytes32 => Proposal)                 public proposals;\r\n  mapping(address => mapping(bytes32 => bool)) public hasVoted;\r\n  mapping(address => uint)                     public shares;\r\n  uint                                         public totalShares;\r\n  IERC20                                       public token;\r\n\r\n  uint constant CRATE_PROP_MIN_SHARE = 1000 *  10 ** 18;\r\n  uint constant VOTING_PERIOD        = 7 days;\r\n\r\n  constructor(address _token) {\r\n    token = IERC20(_token);\r\n  }\r\n\r\n  function deposit(uint amount) external {\r\n    shares[msg.sender] += amount;\r\n    totalShares        += amount;\r\n    token.transferFrom(msg.sender, address(this), amount);\r\n  }\r\n\r\n  function withdraw(uint amount) external {\r\n    require(shares[msg.sender] >= amount, \"Withdrawal amount larger than deposited balance\");\r\n    shares[msg.sender] -= amount;\r\n    totalShares        -= amount;\r\n    token.transfer(msg.sender, amount);\r\n  }\r\n\r\n  function createProposal(bytes32 propHash) external {\r\n    require(\r\n      shares[msg.sender] >= CRATE_PROP_MIN_SHARE,\r\n      \"You do not have enough shares to crate a proposal\"\r\n    );\r\n    require(proposals[propHash].hash == bytes32(0));\r\n    proposals[propHash] = Proposal(\r\n      msg.sender,\r\n      propHash,\r\n      block.timestamp,\r\n      0,\r\n      0,\r\n      Status.Undecided\r\n    );\r\n  }\r\n\r\n\r\n  function vote(bytes32 propHash, Side side) external {\r\n    Proposal storage proposal = proposals[propHash];\r\n    require(hasVoted[msg.sender][propHash] == false, \"You have already voted on this proposal\");\r\n    require(proposals[propHash].hash != bytes32(0), \"Proposal Already Exists\");\r\n    require(block.timestamp <= proposal.createdAt + VOTING_PERIOD, \"The voting period for this proposal has already ended\");\r\n    require((side == Side.Yes || side == Side.No), \"You did not input Side.Yes or Side.No\");\r\n    hasVoted[msg.sender][propHash] = true;\r\n\r\n    if (side == Side.Yes) {\r\n      proposal.votesYes += shares[msg.sender];\r\n      if (proposal.votesYes * 100 / totalShares > 50) {\r\n        proposal.status = Status.Approved;\r\n      }\r\n    } else {\r\n      proposal.votesNo += shares[msg.sender];\r\n      if(proposal.votesNo * 100 / totalShares > 50) {\r\n        proposal.status = Status.Rejected;\r\n      }\r\n    }\r\n\r\n  }\r\n\r\n\r\n}\r\n\r\n\r\n\r\n\r\n\r\n\r\n\r\n\r\n",
  "sourcePath": "C:/Users/vardy/dev/solidity/eathTheBlocks/deFiMastery/DAO/contracts/DAO.sol",
  "compiler": {
    "name": "solc",
    "version": "0.7.3+commit.9bfce1f6.Emscripten.clang"
  },
  "schemaVersion": "3.3.4",
  "updatedAt": "2021-03-30T16:09:53.390Z",
  "devdoc": {
    "kind": "dev",
    "methods": {},
    "version": 1
  },
  "userdoc": {
    "kind": "user",
    "methods": {},
    "version": 1
  }
}